:100000000C943E000C9448000C9448000C9448005A
:100010000C9448000C9448000C9448000C94480040
:100020000C9448000C9448000C9448000C94480030
:100030000C9448000C9448000C9448000C94480020
:100040000C9448000C9448000C9448000C94480010
:100050000C9448000C9448000C9448000C94480000
:100060000C9448000C9448000C9448000C944800F0
:100070000C9448000C9448000C94480011241FBEB6
:10008000CFEFD8E0DEBFCDBF0E94B5000C94CF000B
:100090000C9400008F3F910519F010F08FEF90E065
:1000A0000895CF93DF93EC0160E00E94980061E037
:1000B000CE010396DF91CF910C9498005E9808953D
:1000C0008BB1806C8BB908950F931F93CF93DF93FF
:1000D0008C01EB016F3F710519F010F0CFEFD0E00C
:1000E000BE01C8010E94AF00BE01C8010396DF91A6
:1000F000CF911F910F910C94AF00CF93DF93EC0140
:1001000070E060E00E94AF0070E060E0CE01039616
:10011000DF91CF910C94AF006FEF70E00C94AF00C3
:100120006FEF70E003960C94AF005E9A5F980895AD
:10013000FC016283662359F0613071F081EA80939B
:10014000800082E0809381001092820008958AE806
:1001500090E091838083F2CF88E890E0FACFDC01D1
:10016000ED91FC9171836083089500D000D000D0A0
:10017000CDB7DEB78AB1806F8AB983E081B9109AB2
:100180008E010F5F1F4FC8010E945100C8010E94DD
:1001900095006FEF70E0C8010E946400F7CFF894FB
:0201A000FFCF8F
:00000001FF
